:0400000074EF2DF07C
:10597A0001500302F3CF05F0F4CF06F00150040200
:10598A00F350062602500302F350062605C001F022
:10599A0006C002F012003200430052005D006300AC
:1059AA0063005D005200430032002100120007002C
:1059BA0001000100070012002100320046005700D2
:1059CA00620064005D004F003C00280015000700DB
:1059DA00000002000D001E000DD00450800F08D0F8
:1059EA000450C00F05D00450940F02D00450D40FB5
:1059FA000A6E15D006C008F007C009F00950000A5F
:105A0A00D8A40DD00850010AD8B4E7D7030AD8B4ED
:105A1A00E7D7010AD8B4E7D7070AD8B4E7D70A50B4
:105A2A00E3EC31F01200000E096E000E0A6E000E51
:105A3A000B6E000E0C6E01A008D005500926065008
:105A4A000A2207500B2208500C22D8900536063637
:105A5A0007360836D8900432033202320132045033
:105A6A00011002100310D8A4E6D709C001F00AC039
:105A7A0002F00BC003F00CC004F01200076E0DD048
:105A8A000450800F08D00450C00F05D00450940F62
:105A9A0002D00450D40F086E0DD00750010AD8B4B2
:105AAA00EFD7030AD8B4EFD7010AD8B4EFD7070A59
:105ABA00D8B4EFD70850E3EC31F009D005C0D9FFCC
:105ACA0006C0DAFFDF500AEC33F0054A062A05C0A1
:105ADA00D9FF06C0DAFFDF50D8B41200EFD700EEC4
:105AEA00D4F0100EEE6AE806FDE1426A416A406AA5
:105AFA003F6A3E6A3D6AC20EF66E5C0EF76E000E93
:105B0A00F86E01EE00F010EEA0F00900F5CFEEFFFE
:105B1A00E550E150FAE1A00EF66E590EF76E000E4E
:105B2A00F86E00EE60F010EE42F00900F5CFEEFFDD
:105B3A00E550E150FAE1000EF86E0001EDEF36F0A3
:105B4A00076E0DD00450800F08D00450C00F05D046
:105B5A000450940F02D00450D40F086E0DD0075091
:105B6A00010AD8B4EFD7030AD8B4EFD7010AD8B4D8
:105B7A00EFD7070AD8B4EFD70850E3EC31F00AD0D0
:105B8A0005C0F6FF06C0F7FF0800F5500AEC33F02F
:105B9A00054A062A05C0F6FF06C0F7FF0800F550B9
:105BAA000009D8B41200ECD7000E096E000E0A6E76
:105BBA00000E0B6E000E0C6E085005100610071032
:105BCA00D8B42AD0010E0D6E06D0D8900536063606
:105BDA00073608360D2A08AEF8D7D89009360A369D
:105BEA000B360C360550015C065002580750035814
:105BFA0008500458D8A009D00550015E0650025A30
:105C0A000750035A0850045A0980D89008320732BC
:105C1A00063205320D2EE1D709C001F00AC002F0A2
:105C2A000BC003F00CC004F01200820E016EDE0EEF
:105C3A00E82EFED7012EFCD7820E016EDE0EE82E6C
:105C4A00FED7012EFCD7820E016EDE0EE82EFED79D
:105C5A00012EFCD7820E016EDE0EE82EFED7012E33
:105C6A00FCD7820E016EDE0EE82EFED7012EFCD77F
:105C7A00820E016EDE0EE82EFED7012EFCD7820EB2
:105C8A00016EDE0EE82EFED7012EFCD7820E016EC3
:105C9A00DE0EE82EFED7012EFCD7820E016EDE0E36
:105CAA00E82EFED7012EFCD7820E016EDE0EE82EFC
:105CBA00FED7012EFCD712003200230015000A007D
:105CCA000200000002000A00150023003200410011
:105CDA004F005A006200640062005A004F004100FF
:105CEA000A0014001E00280032003C004600500042
:105CFA005A0064005A00500046003C003200280056
:105D0A001E0014000A0000000A0014001E002800E9
:105D1A0032003C00460050005A0064005A0050000D
:105D2A0046003C00320028001E0014000A00000051
:105D3A000A0014001E00280032003C0046005000F1
:105D4A005A0064005A00500046003C003200280005
:105D5A001E0014000A000000000E066E0450800A9D
:105D6A00F36E800EF35C000ED8B4035CD8B006D094
:105D7A00036C041ED8B0042A010E066E0250800A73
:105D8A00F36E800EF35C000ED8B4015CD8B006D076
:105D9A00016C021ED8B0022A010E061A000E086E05
:105DAA00000E076E04500310D8B41CD0010E056E05
:105DBA0004D0D89003360436052A04AEFAD7D89010
:105DCA00073608360350015C04500258D8A005D0A3
:105DDA000350015E0450025A0780D89004320332FD
:105DEA00052EEDD70650D8B404D0076C081ED8B0DB
:105DFA00082A07C001F008C002F01200000E0A6E5D
:105E0A000450800A800F08E1000E035C05E1000ED1
:105E1A00025C02E1000E015CD8B00AD0041E031E27
:105E2A00021E016C000E022203220422010E0A6ED7
:105E3A000850800A800F08E1000E075C05E1000E99
:105E4A00065C02E1000E055CD8B008D0081E071EE9
:105E5A00061E056C000E06220722082208500510AD
:105E6A0006100710D8B424D0010E096E06D0D890B7
:105E7A000536063607360836092A08AEF8D7055019
:105E8A00015C065002580750035808500458D8A01D
:105E9A0008D00550015E0650025A0750035A0850AE
:105EAA00045AD8900832073206320532092EE7D74B
:105EBA000A50D8B408D0041E031E021E016C000E3C
:105ECA0002220322042201C001F002C002F003C030
:105EDA0003F004C004F01200570ED36E929C9494FF
:105EEA0021EE00F010EE06F0280EDECFE6FFE82ED7
:105EFA00FCD7000E336E000E326E3350800A800FCC
:105F0A00140ED8B4325CD8B003D0324A332AF5D74B
:105F1A00000E336E000E326E3350800A800F140E5C
:105F2A00D8B4325CD8B01200000E316E000E306E5A
:105F3A0004D08284808C304A312A060E016E000E0B
:105F4A00026ED8903234D96E3334DA6E0150D926C3
:105F5A000250DA22DECF03F0DDCF04F03150800A9E
:105F6A00056E0350305C0450800A0558D8A0E1D76A
:105F7A00060E016E000E026ED8903234D96E33349A
:105F8A00DA6E0150D9260250DA22DECF03F0DDCFD5
:105F9A0004F0031E041E034A042A640E03242E6E10
:105FAA00000E04202F6E000E316E000E306E04D0EB
:105FBA008294809C304A312A3150800A016E2E50D8
:105FCA00305C2F50800A0158D8A0F2D7324A332ABF
:105FDA00A3D7570ED36E929C949420EE60F010EEE5
:105FEA0006F0240EDECFE6FFE82EFCD7000E2F6E59
:105FFA00000E2E6E2F50800A800F120ED8B42E5C1F
:10600A00D8B003D02E4A2F2AF5D7000E2F6E000ED5
:10601A002E6E2F50800A800F120ED8B42E5CD8B084
:10602A001200000E2D6E000E2C6E04D08284808C1D
:10603A002C4A2D2A060E016E000E026ED8902E34BE
:10604A00D96E2F34DA6E0150D9260250DA22DECF09
:10605A0003F0DDCF04F02D50800A056E03502C5C4E
:10606A000450800A0558D8A0E1D7060E016E000E2A
:10607A00026ED8902E34D96E2F34DA6E0150D9269A
:10608A000250DA22DECF03F0DDCF04F0031E041E35
:10609A00034A042A640E03242A6E000E04202B6E7F
:1060AA00000E2D6E000E2C6E04D08294809C2C4A19
:1060BA002D2A2D50800A016E2A502C5C2B50800A02
:1060CA000158D8A0F2D72E4A2F2AA3D7570ED36E3B
:1060DA00929C949420EE84F010EE06F01E0EDECF11
:1060EA00E6FFE82EFCD7000E296E000E286E295016
:1060FA00800A800F0F0ED8B4285CD8B003D0284A83
:10610A00292AF5D7000E296E000E286E2950800A1A
:10611A00800F0F0ED8B4285CD8B01200000E276E7C
:10612A00000E266E04D08284808C264A272A060E08
:10613A00016E000E026ED8902834D96E2934DA6EB8
:10614A000150D9260250DA22DECF03F0DDCF04F067
:10615A002750800A056E0350265C0450800A0558B1
:10616A00D8A0E1D7060E016E000E026ED890283430
:10617A00D96E2934DA6E0150D9260250DA22DECFDE
:10618A0003F0DDCF04F0031E041E034A042A640E42
:10619A000324246E000E0420256E000E276E000EC6
:1061AA00266E04D08294809C264A272A2750800A89
:1061BA00016E2450265C2550800A0158D8A0F2D7D7
:1061CA00284A292AA3D7570ED36E929C949421EE7B
:1061DA0028F010EE06F0280EDECFE6FFE82EFCD7F8
:1061EA00000E336E000E326E3350800A800F140E8A
:1061FA00D8B4325CD8B003D0324A332AF5D7000E6D
:10620A00336E000E326E3350800A800F140ED8B4EB
:10621A00325CD8B01200000E316E000E306E04D01F
:10622A008284808C304A312A060E016E000E026E7C
:10623A00D8903234D96E3334DA6E0150D9260250EE
:10624A00DA22DECF03F0DDCF04F03150800A056E8A
:10625A000350305C0450800A0558D8A0E1D7060ED6
:10626A00016E000E026ED8903234D96E3334DA6E73
:10627A000150D9260250DA22DECF03F0DDCF04F036
:10628A00031E041E034A042A640E03242E6E000E03
:10629A0004202F6E000E316E000E306E04D08294F0
:1062AA00809C304A312A3150800A016E2E50305C6F
:1062BA002F50800A0158D8A0F2D7324A332AA3D7DE
:1062CA00000E0A6E0850800A800F08E1000E075C73
:1062DA0005E1000E065C02E1000E055CD8B00AD0AA
:1062EA00081E071E061E056C000E0622072208223B
:1062FA00010E0A6E0450800A800F08E1000E035C4A
:10630A0005E1000E025C02E1000E015CD8B00AD081
:10631A00041E031E021E016C000E02220322042226
:10632A00010E0A1A000E0B6E000E0C6E000E0D6E98
:10633A00000E0E6E0850051006100710D8B42AD0A9
:10634A00010E096E06D0D89005360636073608368D
:10635A00092A08AEF8D7D8900B360C360D360E3609
:10636A000550015C0650025807500358085004585B
:10637A00D8A009D00550015E0650025A0750035AA8
:10638A000850045A0B80D890083207320632053278
:10639A00092EE1D70A50D8B408D00E1E0D1E0C1EC5
:1063AA000B6C000E0C220D220E220BC001F00CC049
:1063BA0002F00DC003F00EC004F01200036E8394C5
:1063CA008390016A03AE01D0012A010E011601323F
:1063DA000132835001187F0B0118836E03C001F04C
:1063EA00060E026ED8900132022EFCD7010E01165B
:1063FA00013A0146014683500118BF0B0118836E0A
:10640A0003C001F0050E026ED8900132022EFCD7AD
:10641A00010E0116013A014683500118DF0B0118DB
:10642A00836E03C001F0013A0F0E0116010E011628
:10643A00013A83500118EF0B0118836E030EE82E00
:10644A00FED700F0838400F000D000D0839403C00C
:10645A0001F0D8900132D8900132D8900132010E61
:10646A00011601320132835001187F0B0118836E25
:10647A0003C001F0D8900132D8900132010E011602
:10648A00013A0146014683500118BF0B0118836E79
:10649A0003C001F0D8900132010E0116013A0146FB
:1064AA0083500118DF0B0118836E03C001F0010E3F
:1064BA000116013A83500118EF0B0118836E030E7F
:1064CA00E82EFED700F0838400F000D000D0839439
:1064DA00080E016E230EE82EFED7012EFCD700F01F
:1064EA001200959E959C959A95989594959095925B
:1064FA00839E839C839A8398839483908392080EC5
:10650A00046E230EE82EFED7042EFCD700F0080EE8
:10651A00046E230EE82EFED7042EFCD700F0080ED8
:10652A00046E230EE82EFED7042EFCD700F0080EC8
:10653A00046E230EE82EFED7042EFCD700F0080EB8
:10654A00046E230EE82EFED7042EFCD700F0080EA8
:10655A00046E230EE82EFED7042EFCD700F0010E9F
:10656A00056E1ED0839E839C838A8388839483903E
:10657A00839E839C838A83888384839000F000D0DF
:10658A0000D0839E839C838A838883948390080E99
:10659A00046E230EE82EFED7042EFCD700F0052A3F
:1065AA00030E0564DFD7839E839C838A8398839432
:1065BA008390839E839C838A83988384839000F04C
:1065CA0000D000D0839E839C838A8398839483908F
:1065DA00080E046E230EE82EFED7042EFCD700F018
:1065EA00280E056E0550E3EC31F0100E056E0550CD
:1065FA00E3EC31F0010E056E0550E3EC31F00F0EBD
:10660A00056E0550E3EC31F01200036E839483802B
:10661A00016A03AE01D0012A010E011601320132CC
:10662A00835001187F0B0118836E03C001F0060E18
:10663A00026ED8900132022EFCD7010E0116013AE1
:10664A000146014683500118BF0B0118836E03C02F
:10665A0001F0050E026ED8900132022EFCD7010E0F
:10666A000116013A014683500118DF0B0118836EA7
:10667A0003C001F0013A0F0E0116010E0116013A8C
:10668A0083500118EF0B0118836E030EE82EFED714
:10669A0000F0838400F000D000D0839403C001F09E
:1066AA00D8900132D8900132D8900132010E0116E9
:1066BA0001320132835001187F0B0118836E03C027
:1066CA0001F0D8900132D8900132010E0116013A38
:1066DA000146014683500118BF0B0118836E03C09F
:1066EA0001F0D8900132010E0116013A0146835099
:1066FA000118DF0B0118836E03C001F0010E0116A9
:10670A00013A83500118EF0B0118836E030EE82E2D
:10671A00FED700F0838400F000D000D0839400F00C
:10672A0000D000D0080E016E230EE82EFED7012EEF
:10673A00FCD700F01200570ED36E9290949421EE7B
:10674A0050F010EE0EF0280EDECFE6FFE82EFCD752
:10675A00000E3B6E000E3A6E3B50800A800F140EFC
:10676A00D8B43A5CD8B02BD00E0E096E000E0A6E61
:10677A00D8903A34D96E3B34DA6E0950D9260A5089
:10678A00DA22DECF01F0DDCF02F0000E046E020E37
:10679A00036EB1EC2EF00E0E0B6E000E0C6ED8903E
:1067AA003A34D96E3B34DA6E0B50D9260C50DA22C1
:1067BA0001C0DEFF02C0DDFF3A4A3B2ACDD7000EF8
:1067CA003B6E000E3A6E3B50800A800F140ED8B40E
:1067DA003A5CD8B01200000E396E000E386E04D042
:1067EA008284808C384A392A0E0E096E000E0A6E8F
:1067FA00D8903A34D96E3B34DA6E0950D9260A5009
:10680A00DA22DECF0BF0DDCF0CF03950800A0D6EA4
:10681A000B50385C0C50800A0D58D8A0E1D70E0EE8
:10682A00096E000E0A6ED8903A34D96E3B34DA6E8D
:10683A000950D9260A50DA22DECF0BF0DDCF0CF050
:10684A000B1E0C1E0B4A0C2A320E0B24366E000E3F
:10685A000C20376E000E396E000E386E04D082940A
:10686A00809C384A392A3950800A096E3650385C79
:10687A003750800A0958D8A0F2D73A4A3B2AA3D7F8
:10688A00570ED36E929C949421EE78F010EE0EF08F
:10689A00280EDECFE6FFE82EFCD7000E3B6E000E78
:1068AA003A6E3B50800A800F140ED8B43A5CD8B0C6
:1068BA002BD00E0E096E000E0A6ED8903A34D96E9D
:1068CA003B34DA6E0950D9260A50DA22DECF01F0BB
:1068DA00DDCF02F0000E046E040E036EB1EC2EF052
:1068EA000E0E0B6E000E0C6ED8903A34D96E3B34F5
:1068FA00DA6E0B50D9260C50DA2201C0DEFF02C034
:10690A00DDFF3A4A3B2ACDD7000E3B6E000E3A6EA7
:10691A003B50800A800F140ED8B43A5CD8B01200EB
:10692A00000E396E000E386E04D08284808C384A8C
:10693A00392A0E0E096E000E0A6ED8903A34D96EB4
:10694A003B34DA6E0950D9260A50DA22DECF0BF030
:10695A00DDCF0CF03950800A0D6E0B50385C0C50AC
:10696A00800A0D58D8A0E1D70E0E096E000E0A6EE5
:10697A00D8903A34D96E3B34DA6E0950D9260A5087
:10698A00DA22DECF0BF0DDCF0CF00B1E0C1E0B4A09
:10699A000C2A190E0B24366E000E0C20376E000ED0
:1069AA00396E000E386E04D08294809C384A392A97
:1069BA003950800A096E3650385C3750800A0958B7
:1069CA00D8A0F2D73A4A3B2AA3D7000E306E000E5F
:1069DA002F6E000E316E0FC034F010C035F011C0AA
:1069EA0036F012C037F0000E336E2E0E326E32C001
:1069FA00D9FF33C0DAFF000EDF6E3750800A800FEE
:106A0A0008E1000E365C05E1000E355C02E1000E7D
:106A1A00345CD8B01AD034C001F035C002F036C0A8
:106A2A0003F037C004F0FF0E056EFF0E066EFF0E70
:106A3A00076EFF0E086E18EC2DF001C034F002C08C
:106A4A0035F003C036F004C037F03206D8A033065A
:106A5A0034C001F035C002F036C003F037C004F08C
:106A6A000A0E056E000E066E000E076E000E086E08
:106A7A0003EC2FF001C015F002C016F003C017F0A6
:106A8A0004C018F015C02FF016C030F02F50300F88
:106A9A0032C0D9FF33C0DAFFDF6E34C001F035C02F
:106AAA0002F036C003F037C004F00A0E056E000E7D
:106ABA00066E000E076E000E086E65EC31F001C01E
:106ACA0034F002C035F003C036F004C037F0375056
:106ADA00341035103610D8A4B8D71250800A800F57
:106AEA0008E1000E115C05E1000E105C02E1000EE7
:106AFA000F5CD8B009D03206D8A0330632C0D9FF0D
:106B0A0033C0DAFF2D0EDF6E32C015F033C016F037
:106B1A00151E161E154A162A150E1526000E1622C1
:106B2A001A0E176E000E186E1550172616501822D8
:106B3A0017C034F018C035F0000E35BEFF0E366EA1
:106B4A00376E000E316E13D03150010DF3503224DE
:106B5A00D96EF4503320DA6E3150010DF3501324FC
:106B6A00E16EF4501420E26EDFCFE7FF312A31C024
:106B7A0015F0166A176A186A1850800A196E345086
:106B8A00155C35501658365017583750800A195820
:106B9A00D8A0DAD7FF0E34240F6EFF0E3520106E00
:106BAA0012009492000E176E010E166E000E1A6EE7
:106BBA00090E1B6E3D0E1C6E000E1D6E1AC001F0F2
:106BCA001BC002F01CC003F01DC004F010C005F089
:106BDA0011C006F0076A086AD9EC2DF001C01AF054
:106BEA0002C01BF003C01CF004C01DF01AC012F052
:106BFA001BC013F01CC014F01DC015F0030E05D005
:106C0A00D8901532143213321232E82EF9D712C044
:106C1A001AF013C01BF014C01CF015C01DF0000EB2
:106C2A00BA6E28D016C012F017C013F0D8901236D8
:106C3A001336D8901236133612C016F013C017F056
:106C4A00BA2A1AC012F01BC013F01CC014F01DC0DF
:106C5A0015F0030E05D0D8901532143213321232C1
:106C6A00E82EF9D712C01AF013C01BF014C01CF09A
:106C7A0015C01DF0010E126E010E136E000E146E79
:106C8A00000E156E12501A5C13501B5814501C58E3
:106C9A0015501D58D8B0C6D71A06000E1B5A1C5AD2
:106CAA001D5A1AC0BBFF1AC01EF01BC01FF01CC021
:106CBA0020F01DC021F0010E1E26000E1F222022E8
:106CCA0021220EC001F00FC002F0036A046A1EC03E
:106CDA0005F01FC006F020C007F021C008F018EC2C
:106CEA002DF001C01EF002C01FF003C020F004C046
:106CFA0021F01EC012F01FC013F020C014F021C0F2
:106D0A0015F0020ED8901236133614361536E82EC0
:106D1A00F9D712C01EF013C01FF014C020F015C01E
:106D2A0021F01EC001F01FC002F020C003F021C0F4
:106D3A0004F0640E056E000E066E000E076E000E5D
:106D4A00086ED9EC2DF001C01EF002C01FF003C07E
:106D5A0020F004C021F01EC018F01FC019F0030E65
:106D6A001814186E196A18C012F019C013F0123AE2
:106D7A00133AF00E131612500F0B1312F00E1216CE
:106D8A0012C018F013C019F00C0E976E9750181015
:106D9A00976E1EC012F01FC013F020C014F021C05D
:106DAA0015F0030E05D0D890153214321332123270
:106DBA00E82EF9D712C01EF013C01FF014C020F03D
:106DCA0015C021F01EC090FFBA84000EBC6E1200DE
:106DDA002F0E0001D36F000E0001CD6F000E0001CF
:106DEA00CE6F000E0001D26F000E0001D16F000EAF
:106DFA000001D06F000E0001CF6F000E0001CB6FB3
:106E0A00000E0001CA6F570ED36E000E0F015E6F9F
:106E1A0076EC32F093809382938493869388000E63
:106E2A000F015C6F81A00AD00001D44BD52B0D0E47
:106E3A003C6EFC0EE82EFED73C2EFCD781A20BD06E
:106E4A000001D407D8A0D5070D0E3C6EFC0EE82E23
:106E5A00FED73C2EFCD70001D551D411D8A41CD0A2
:106E6A0076EC32F0010EE3EC31F00C0EE3EC31F08B
:106E7A00010E046E7E0E066EFD0E056E010EA5EC69
:106E8A002DF0010E046E7E0E066E6D0E056E020E5C
:106E9A00A5EC2DF01AEC2EF00001D405D511D8A4DA
:106EAA002CD176EC32F0010EE3EC31F00C0EE3EC6F
:106EBA0031F0010E046E7E0E066EC10E056E010ED5
:106ECA00A5EC2DF0010E046E7E0E066E990E056E6F
:106EDA00020EA5EC2DF01AEC2EF081A40ED1000EB4
:106EEA000001E36F000E0001E26F0001D551D411D9
:106EFA00D8A444D076EC32F0010EE3EC31F00C0E5B
:106F0A00E3EC31F0010E046E7F0E066E4E0E056E36
:106F1A00010EA5EC2DF0010E046E7F0E066E570EC3
:106F2A00056E020EA5EC2DF01AEC2EF081A426D0E7
:106F3A00000E0001DD6F000E0001DC6F76EC32F00E
:106F4A00010EE3EC31F00C0EE3EC31F0010E046EAD
:106F5A007F0E066E470E056E010EA5EC2DF071EC44
:106F6A002FF081A606D0000E0001DD6F010E000190
:106F7A00DC6F0001DD51DC11D8B4F1D70001D40572
:106F8A00D511D8A444D076EC32F0010EE3EC31F0FE
:106F9A000C0EE3EC31F0010E046E7F0E066E450E08
:106FAA00056E010EA5EC2DF0010E046E7F0E066E25
:106FBA00600E056E020EA5EC2DF01AEC2EF081A4DF
:106FCA0026D0000E0001DD6F000E0001DC6F76ECAA
:106FDA0032F0010EE3EC31F00C0EE3EC31F0010E6D
:106FEA00046E7F0E066E590E056E010EA5EC2DF08D
:106FFA00EEEC2FF081A606D0000E0001DD6F010E27
:10700A000001DC6F0001DD51DC11D8B4F1D70001B9
:10701A00D451020AD511D8A43BD076EC32F0010E35
:10702A00E3EC31F00C0EE3EC31F0010E046E7F0E4E
:10703A00066E690E056E010EA5EC2DF01AEC2EF007
:10704A0081A426D0000E0001DD6F000E0001DC6F66
:10705A0076EC32F0010EE3EC31F00C0EE3EC31F099
:10706A00010E046E7F0E066E6B0E056E010EA5EC08
:10707A002DF06BEC30F081A606D0000E0001DD6F1A
:10708A00010E0001DC6F0001DD51DC11D8B4F1D72B
:10709A0081A00AD00001D44BD52B0D0E3C6EFC0EFC
:1070AA00E82EFED73C2EFCD781A20BD00001D407D4
:1070BA00D8A0D5070D0E3C6EFC0EE82EFED73C2E4E
:1070CA00FCD7030E0001D45D000E0001D559D8A0EB
:1070DA0006D0000E0001D56F000E0001D46F81B0FA
:1070EA0081A606D0000E0001E36F010E0001E26FD7
:1070FA000001E351E211D8B4F8D60001D451020AD2
:10710A00D511D8A42CD176EC32F0010EE3EC31F093
:10711A000C0EE3EC31F0010E046E7E0E066EB50E17
:10712A00056E010EA5EC2DF0010E046E7E0E066EA4
:10713A00A70E056E020EA5EC2DF01AEC2EF081A416
:10714A000ED1000E0001E36F000E0001E26F000194
:10715A00D551D411D8A444D076EC32F0010EE3EC28
:10716A0031F00C0EE3EC31F0010E046E7F0E066E68
:10717A001D0E056E010EA5EC2DF0010E046E7F0E9C
:10718A00066E270E056E020EA5EC2DF01AEC2EF0F7
:10719A0081A426D0000E0001DD6F000E0001DC6F15
:1071AA0076EC32F0010EE3EC31F00C0EE3EC31F048
:1071BA00010E046E7F0E066E150E056E010EA5EC0D
:1071CA002DF0E8EC30F081A606D0000E0001DD6F4C
:1071DA00010E0001DC6F0001DD51DC11D8B4F1D7DA
:1071EA000001D405D511D8A444D076EC32F0010EB2
:1071FA00E3EC31F00C0EE3EC31F0010E046E7F0E7D
:10720A00066E130E056E010EA5EC2DF0010E046E2E
:10721A007F0E066E310E056E020EA5EC2DF01AECED
:10722A002EF081A426D0000E0001DD6F000E0001B1
:10723A00DC6F76EC32F0010EE3EC31F00C0EE3EC8D
:10724A0031F0010E046E7F0E066E290E056E010ED8
:10725A00A5EC2DF0A0EC33F081A606D0000E0001BB
:10726A00DD6F010E0001DC6F0001DD51DC11D8B4C5
:10727A00F1D70001D451020AD511D8A43BD076EC3B
:10728A0032F0010EE3EC31F00C0EE3EC31F0010EBA
:10729A00046E7F0E066E3B0E056E010EA5EC2DF0F8
:1072AA001AEC2EF081A426D0000E0001DD6F000E2C
:1072BA000001DC6F76EC32F0010EE3EC31F00C0EDB
:1072CA00E3EC31F0010E046E7F0E066E3D0E056E84
:1072DA00010EA5EC2DF045EC34F081A606D0000E87
:1072EA000001DD6F010E0001DC6F0001DD51DC11D0
:1072FA00D8B4F1D781A00AD00001D44BD52B0D0EFA
:10730A003C6EFC0EE82EFED73C2EFCD781A20BD099
:10731A000001D407D8A0D5070D0E3C6EFC0EE82E4E
:10732A00FED73C2EFCD7030E0001D45D000E0001EF
:10733A00D559D8A006D0000E0001D56F000E000165
:10734A00D46F81B081A606D0000E0001E36F010E52
:10735A000001E26F0001E351E211D8B4F8D600014E
:10736A00D451030AD511D8A425EF3FF076EC32F0B8
:10737A00010EE3EC31F00C0EE3EC31F0010E046E79
:10738A007F0E066E8D0E056E010EA5EC2DF01AEC21
:10739A002EF081A825EF3FF0000E0001E36F000EEA
:1073AA000001E26F0001D551D411D8A41CD076ECAB
:1073BA0032F0010EE3EC31F00C0EE3EC31F0010E89
:1073CA00046E7E0E066ECD0E056E010EA5EC2DF036
:1073DA00010E046E7E0E066EE50E056E020EA5EC1B
:1073EA002DF01AEC2EF00001D405D511D8A43AEFED
:1073FA003EF076EC32F0010EE3EC31F00C0EE3ECE9
:10740A0031F0010E046E7E0E066ED90E056E010E67
:10741A00A5EC2DF0010E046E7E0E066EE50E056ECD
:10742A00020EA5EC2DF01AEC2EF081A83AEF3EF0F0
:10743A00000E0001D96F000E0001D86F0001D5516E
:10744A00D411D8A41CD076EC32F0010EE3EC31F062
:10745A000C0EE3EC31F0010E046E7E0E066E7D0E0C
:10746A00056E010EA5EC2DF0010E046E7F0E066E60
:10747A00720E056E020EA5EC2DF01AEC2EF000012C
:10748A00D405D511D8A4ADD076EC32F0010EE3ECD8
:10749A0031F00C0EE3EC31F0010E046E7E0E066E36
:1074AA008B0E056E010EA5EC2DF0010E046E7F0EFB
:1074BA00066E720E056E020EA5EC2DF01AEC2EF079
:1074CA0081A88FD0000E0001DF6F000E0001DE6F71
:1074DA0076EC32F0010EE3EC31F00C0EE3EC31F015
:1074EA00010E046E7F0E066E840E056E010EA5EC6B
:1074FA002DF01AEC2EF081A65FD00001D32B000EDE
:10750A00056E020E046E000E076E010E066EF1EC99
:10751A002CF00001D3510AEC33F01AEC2EF02FD0E4
:10752A00030E0001D76FE80E27D0070E0001D76FB0
:10753A00D00E22D00B0E0001D76FB80E1DD00F0E41
:10754A000001D76FA00E18D0130E0001D76F880E56
:10755A0013D0170E0001D76F700E0ED01B0E00014C
:10756A00D76F580E09D01F0E0001D76F400E04D0F6
:10757A00230E0001D76F280E0001D66F1DD000011F
:10758A00D351310AD8B4CCD7030AD8B4CED7010A1A
:10759A00D8B4D0D7070AD8B4D2D7010AD8B4D4D726
:1075AA00030AD8B4D6D7010AD8B4D8D70F0AD8B4A0
:1075BA00DAD7010AD8B4DCD7390E0001D36503D073
:1075CA002F0E0001D36F81B081A206D0000E0001F8
:1075DA00DF6F010E0001DE6F0001DF51DE11D8B44A
:1075EA0077D70001D451020AD511D8A408D376EC72
:1075FA0032F0010EE3EC31F00C0EE3EC31F0010E47
:10760A00046E7E0E066E7D0E056E010EA5EC2DF043
:10761A00010E046E7F0E066E7B0E056E020EA5EC41
:10762A002DF01AEC2EF081A8EAD2000E0001E16FCB
:10763A00000E0001E06F0001D405D511D8A446D090
:10764A0076EC32F0010EE3EC31F00C0EE3EC31F0A3
:10765A00000E046E7F0E066EAB0E056E010EA5ECD3
:10766A002DF0000E046E7F0E066EB00E056E020E31
:10767A00A5EC2DF0050E046E7F0E066EBA0E056E91
:10768A00010EA5EC2DF0050E046E7F0E066EC40EDB
:10769A00056E020EA5EC2DF00A0E046E7F0E066E24
:1076AA00CE0E056E010EA5EC2DF00A0E046E7F0EAD
:1076BA00066ED80E056E020EA5EC2DF01AEC2EF011
:1076CA00000E0001D26F0A0E0001D16F0001D451E1
:1076DA00020AD511D8A446D076EC32F0010EE3ECBA
:1076EA0031F00C0EE3EC31F0000E046E7F0E066EE4
:1076FA00A60E056E010EA5EC2DF0000E046E7F0E8F
:10770A00066EB50E056E020EA5EC2DF0050E046E82
:10771A007F0E066EBA0E056E010EA5EC2DF0050E53
:10772A00046E7F0E066EC40E056E020EA5EC2DF0D9
:10773A000A0E046E7F0E066ECE0E056E010EA5ECC5
:10774A002DF00A0E046E7F0E066ED80E056E020E1E
:10775A00A5EC2DF01AEC2EF0000E0001D26F140EDB
:10776A000001D16F0001D451030AD511D8A446D023
:10777A0076EC32F0010EE3EC31F00C0EE3EC31F072
:10778A00000E046E7F0E066EA60E056E010EA5ECA7
:10779A002DF0000E046E7F0E066EB00E056E020E00
:1077AA00A5EC2DF0050E046E7F0E066EBF0E056E5B
:1077BA00010EA5EC2DF0050E046E7F0E066EC40EAA
:1077CA00056E020EA5EC2DF00A0E046E7F0E066EF3
:1077DA00CE0E056E010EA5EC2DF00A0E046E7F0E7C
:1077EA00066ED80E056E020EA5EC2DF01AEC2EF0E0
:1077FA00000E0001D26F1E0E0001D16F0001D4519C
:10780A00040AD511D8A446D076EC32F0010EE3EC86
:10781A0031F00C0EE3EC31F0000E046E7F0E066EB2
:10782A00A60E056E010EA5EC2DF0000E046E7F0E5D
:10783A00066EB00E056E020EA5EC2DF0050E046E56
:10784A007F0E066EBA0E056E010EA5EC2DF0050E22
:10785A00046E7F0E066EC90E056E020EA5EC2DF0A3
:10786A000A0E046E7F0E066ECE0E056E010EA5EC94
:10787A002DF00A0E046E7F0E066ED80E056E020EED
:10788A00A5EC2DF01AEC2EF0000E0001D26F280E96
:10789A000001D16F0001D451050AD511D8A446D0F0
:1078AA0076EC32F0010EE3EC31F00C0EE3EC31F041
:1078BA00000E046E7F0E066EA60E056E010EA5EC76
:1078CA002DF0000E046E7F0E066EB00E056E020ECF
:1078DA00A5EC2DF0050E046E7F0E066EBA0E056E2F
:1078EA00010EA5EC2DF0050E046E7F0E066EC40E79
:1078FA00056E020EA5EC2DF00A0E046E7F0E066EC2
:10790A00D30E056E010EA5EC2DF00A0E046E7F0E45
:10791A00066ED80E056E020EA5EC2DF01AEC2EF0AE
:10792A00000E0001D26F320E0001D16F0001D45156
:10793A00060AD511D8A446D076EC32F0010EE3EC53
:10794A0031F00C0EE3EC31F0000E046E7F0E066E81
:10795A00A60E056E010EA5EC2DF0000E046E7F0E2C
:10796A00066EB00E056E020EA5EC2DF0050E046E25
:10797A007F0E066EBA0E056E010EA5EC2DF0050EF1
:10798A00046E7F0E066EC40E056E020EA5EC2DF077
:10799A000A0E046E7F0E066ECE0E056E010EA5EC63
:1079AA002DF00A0E046E7F0E066EDD0E056E020EB7
:1079BA00A5EC2DF01AEC2EF0000E0001D26F3C0E51
:1079CA000001D16F0001D451070AD511D8A434D0CF
:1079DA0076EC32F0010EE3EC31F00C0EE3EC31F010
:1079EA00010E046E7F0E066EA00E056E010EA5EC4A
:1079FA002DF0010E046E7F0E066EE70E056E020E66
:107A0A00A5EC2DF0060E046E7F0E066EF10E056EC5
:107A1A00010EA5EC2DF0060E046E7F0E066E940E76
:107A2A00056E020EA5EC2DF01AEC2EF0000E0001E8
:107A3A00D26F460E0001D16F0001D451080AD51148
:107A4A00D8A434D076EC32F0010EE3EC31F00C0E0F
:107A5A00E3EC31F0010E046E7F0E066EE20E056E47
:107A6A00010EA5EC2DF0010E046E7F0E066EEC0ED3
:107A7A00056E020EA5EC2DF0060E046E7F0E066E44
:107A8A00F10E056E010EA5EC2DF0060E046E7F0EAA
:107A9A00066E940E056E020EA5EC2DF01AEC2EF071
:107AAA00000E0001D26F500E0001D16F0001D451B7
:107ABA00090AD511D8A434D076EC32F0010EE3ECE1
:107ACA0031F00C0EE3EC31F0010E046E7F0E066EFF
:107ADA00E20E056E010EA5EC2DF0010E046E7F0E6E
:107AEA00066EE70E056E020EA5EC2DF0060E046E6C
:107AFA007F0E066EF60E056E010EA5EC2DF0060E33
:107B0A00046E7F0E066E940E056E020EA5EC2DF025
:107B1A001AEC2EF0000E0001D26F5A0E0001D16F3E
:107B2A000001D4510A0AD511D8A434D076EC32F027
:107B3A00010EE3EC31F00C0EE3EC31F0010E046EB1
:107B4A007F0E066EE20E056E010EA5EC2DF0010EFB
:107B5A00046E7F0E066EE70E056E020EA5EC2DF082
:107B6A00060E046E7F0E066EF10E056E010EA5EC72
:107B7A002DF0060E046E7F0E066E9A0E056E020E2C
:107B8A00A5EC2DF01AEC2EF0000E0001D26F640E57
:107B9A000001D16F81A00AD00001D44BD52B0D0E64
:107BAA003C6EFC0EE82EFED73C2EFCD781A20BD0F1
:107BBA000001D407D8A0D5070D0E3C6EFC0EE82EA6
:107BCA00FED73C2EFCD70B0E0001D45D000E00013F
:107BDA00D559D8A006D0000E0001D56F010E0001BC
:107BEA00D46F81B281A406D0000E0001E16F010EAC
:107BFA000001E06F0001E151E011D8B416D581A06F
:107C0A000AD00001D44BD52B0D0E3C6EFC0EE82E8B
:107C1A00FED73C2EFCD781A20BD00001D407D8A0F6
:107C2A00D5070D0E3C6EFC0EE82EFED73C2EFCD777
:107C3A00030E0001D45D000E0001D559D8A006D06C
:107C4A00000E0001D56F010E0001D46F81B081A62C
:107C5A0006D0000E0001D96F010E0001D86F000195
:107C6A00D951D811D8B41DEF3AF00001D451020A03
:107C7A00D511D8A41CD076EC32F0010EE3EC31F029
:107C8A000C0EE3EC31F0010E046E7E0E066ECD0E84
:107C9A00056E010EA5EC2DF0010E046E7E0E066E29
:107CAA00F10E056E020EA5EC2DF01AEC2EF081A451
:107CBA0091D0000E0001DB6F000E0001DA6F76EC46
:107CCA0032F0010EE3EC31F00C0EE3EC31F000017E
:107CDA00D3C001F0026A030E046EE80E036EBDEC17
:107CEA002CF001C0CFF002C0D0F00001CFC00FF0DD
:107CFA000001D0C010F0116A126A0001000E146E61
:107D0A000001A20E136EEAEC34F00F500001CE6FA0
:107D1A00000E0001CC6FD1C00EF0D2C00FF0D6C059
:107D2A0010F0D7C011F0D6EC35F0010E046E7F0EBC
:107D3A00066E080E056E010EA5EC2DF0000E056EFE
:107D4A00040E046E000E076E010E066EF1EC2CF0A6
:107D5A000001D3510AEC33F0010E046E7F0E066E59
:107D6A00FB0E056E020EA5EC2DF0070E046E7F0EBB
:107D7A00066E980E056E020EA5EC2DF00001D1C01C
:107D8A000FF00001D2C010F0116A126A0001000E51
:107D9A00146E0001B60E136EEAEC34F00F500001B7
:107DAA00CD6F040E046E0001000E066E0001B60EC1
:107DBA00056E020E43EC2DF081B081A406D0000EB0
:107DCA000001DB6F010E0001DA6F0001DB51DA11ED
:107DDA00D8B4F2D781B081A406D0000E0001E36FB7
:107DEA00010E0001E26F81A00AD00001D44BD52B0D
:107DFA000D0E3C6EFC0EE82EFED73C2EFCD781A25F
:107E0A000BD00001D407D8A0D5070D0E3C6EFC0E8E
:107E1A00E82EFED73C2EFCD7040E0001D45D000EDE
:107E2A000001D559D8A006D0000E0001D56F010E69
:107E3A000001D46F0001E351E211D8B4D1EF39F057
:107E4A00040E0001D45D000E0001D559D8A017EF29
:107E5A0037F0000E0001D56F010E0001D46F17EF45
:107E6A0037F00050726F796563746F2046696E61EE
:107E7A006C20002020204672656375656E63696117
:107E8A00003D3E204672656375656E636961002038
:107E9A002020547269616E67756C6172003D3E20E4
:107EAA00547269616E67756C617200202020536597
:107EBA006E6F6964616C003D3E2053656E6F696444
:107ECA00616C00202020496E677265736172003D03
:107EDA003E20496E67726573617200202020436FED
:107EEA006D656E7A6172003D3E20436F6D656E7AF4
:107EFA006172002020202020444943495300463A19
:107F0A00202030303020687A002020205472696E98
:107F1A002031003D3E205472696E2031002020201D
:107F2A005472696E2032003D3E205472696E2032CE
:107F3A00003D3E205472696E203300202020536990
:107F4A006E2031003D3E2053696E203100202020F2
:107F5A0053696E2032003D3E2053696E2032003D47
:107F6A003E2053696E2033002020204369636C6FE2
:107F7A00003D3E204369636C6F0020203030302082
:107F8A00487A003D3E2050574D00203130302500C0
:107F9A002A3130302500202A37302500203130257B
:107FAA00002A3130250020323025002A32302500BF
:107FBA0020333025002A3330250020343025002A8A
:107FCA003430250020353025002A3530250020366A
:107FDA003025002A36302500203730250020383059
:107FEA0025002A3830250020393025002A39302545
:067FFA0000433A200000E4
:020000040020DA
:08000000FFFFFFFFFFFFFFFF00
:020000040030CA
:0E00000000085E3CFFD381FF0FC00FE00F40F1
:00000001FF
